{
  "contractName": "StepUpNFT",
  "abi": [
    {
      "inputs": [
        {
          "internalType": "string",
          "name": "baseURI",
          "type": "string"
        }
      ],
      "stateMutability": "nonpayable",
      "type": "constructor"
    },
    {
      "anonymous": false,
      "inputs": [
        {
          "indexed": true,
          "internalType": "address",
          "name": "owner",
          "type": "address"
        },
        {
          "indexed": true,
          "internalType": "address",
          "name": "approved",
          "type": "address"
        },
        {
          "indexed": true,
          "internalType": "uint256",
          "name": "tokenId",
          "type": "uint256"
        }
      ],
      "name": "Approval",
      "type": "event"
    },
    {
      "anonymous": false,
      "inputs": [
        {
          "indexed": true,
          "internalType": "address",
          "name": "owner",
          "type": "address"
        },
        {
          "indexed": true,
          "internalType": "address",
          "name": "operator",
          "type": "address"
        },
        {
          "indexed": false,
          "internalType": "bool",
          "name": "approved",
          "type": "bool"
        }
      ],
      "name": "ApprovalForAll",
      "type": "event"
    },
    {
      "anonymous": false,
      "inputs": [
        {
          "indexed": true,
          "internalType": "address",
          "name": "previousOwner",
          "type": "address"
        },
        {
          "indexed": true,
          "internalType": "address",
          "name": "newOwner",
          "type": "address"
        }
      ],
      "name": "OwnershipTransferred",
      "type": "event"
    },
    {
      "anonymous": false,
      "inputs": [
        {
          "indexed": true,
          "internalType": "address",
          "name": "from",
          "type": "address"
        },
        {
          "indexed": true,
          "internalType": "address",
          "name": "to",
          "type": "address"
        },
        {
          "indexed": true,
          "internalType": "uint256",
          "name": "tokenId",
          "type": "uint256"
        }
      ],
      "name": "Transfer",
      "type": "event"
    },
    {
      "inputs": [],
      "name": "_paused",
      "outputs": [
        {
          "internalType": "bool",
          "name": "",
          "type": "bool"
        }
      ],
      "stateMutability": "view",
      "type": "function"
    },
    {
      "inputs": [],
      "name": "_price",
      "outputs": [
        {
          "internalType": "uint256",
          "name": "",
          "type": "uint256"
        }
      ],
      "stateMutability": "view",
      "type": "function"
    },
    {
      "inputs": [
        {
          "internalType": "address",
          "name": "to",
          "type": "address"
        },
        {
          "internalType": "uint256",
          "name": "tokenId",
          "type": "uint256"
        }
      ],
      "name": "approve",
      "outputs": [],
      "stateMutability": "nonpayable",
      "type": "function"
    },
    {
      "inputs": [
        {
          "internalType": "address",
          "name": "owner",
          "type": "address"
        }
      ],
      "name": "balanceOf",
      "outputs": [
        {
          "internalType": "uint256",
          "name": "",
          "type": "uint256"
        }
      ],
      "stateMutability": "view",
      "type": "function"
    },
    {
      "inputs": [
        {
          "internalType": "uint256",
          "name": "tokenId",
          "type": "uint256"
        }
      ],
      "name": "getApproved",
      "outputs": [
        {
          "internalType": "address",
          "name": "",
          "type": "address"
        }
      ],
      "stateMutability": "view",
      "type": "function"
    },
    {
      "inputs": [
        {
          "internalType": "address",
          "name": "owner",
          "type": "address"
        },
        {
          "internalType": "address",
          "name": "operator",
          "type": "address"
        }
      ],
      "name": "isApprovedForAll",
      "outputs": [
        {
          "internalType": "bool",
          "name": "",
          "type": "bool"
        }
      ],
      "stateMutability": "view",
      "type": "function"
    },
    {
      "inputs": [],
      "name": "maxTokenIds",
      "outputs": [
        {
          "internalType": "uint256",
          "name": "",
          "type": "uint256"
        }
      ],
      "stateMutability": "view",
      "type": "function"
    },
    {
      "inputs": [],
      "name": "name",
      "outputs": [
        {
          "internalType": "string",
          "name": "",
          "type": "string"
        }
      ],
      "stateMutability": "view",
      "type": "function"
    },
    {
      "inputs": [],
      "name": "owner",
      "outputs": [
        {
          "internalType": "address",
          "name": "",
          "type": "address"
        }
      ],
      "stateMutability": "view",
      "type": "function"
    },
    {
      "inputs": [
        {
          "internalType": "uint256",
          "name": "tokenId",
          "type": "uint256"
        }
      ],
      "name": "ownerOf",
      "outputs": [
        {
          "internalType": "address",
          "name": "",
          "type": "address"
        }
      ],
      "stateMutability": "view",
      "type": "function"
    },
    {
      "inputs": [],
      "name": "renounceOwnership",
      "outputs": [],
      "stateMutability": "nonpayable",
      "type": "function"
    },
    {
      "inputs": [
        {
          "internalType": "address",
          "name": "from",
          "type": "address"
        },
        {
          "internalType": "address",
          "name": "to",
          "type": "address"
        },
        {
          "internalType": "uint256",
          "name": "tokenId",
          "type": "uint256"
        }
      ],
      "name": "safeTransferFrom",
      "outputs": [],
      "stateMutability": "nonpayable",
      "type": "function"
    },
    {
      "inputs": [
        {
          "internalType": "address",
          "name": "from",
          "type": "address"
        },
        {
          "internalType": "address",
          "name": "to",
          "type": "address"
        },
        {
          "internalType": "uint256",
          "name": "tokenId",
          "type": "uint256"
        },
        {
          "internalType": "bytes",
          "name": "data",
          "type": "bytes"
        }
      ],
      "name": "safeTransferFrom",
      "outputs": [],
      "stateMutability": "nonpayable",
      "type": "function"
    },
    {
      "inputs": [
        {
          "internalType": "address",
          "name": "operator",
          "type": "address"
        },
        {
          "internalType": "bool",
          "name": "approved",
          "type": "bool"
        }
      ],
      "name": "setApprovalForAll",
      "outputs": [],
      "stateMutability": "nonpayable",
      "type": "function"
    },
    {
      "inputs": [
        {
          "internalType": "bytes4",
          "name": "interfaceId",
          "type": "bytes4"
        }
      ],
      "name": "supportsInterface",
      "outputs": [
        {
          "internalType": "bool",
          "name": "",
          "type": "bool"
        }
      ],
      "stateMutability": "view",
      "type": "function"
    },
    {
      "inputs": [],
      "name": "symbol",
      "outputs": [
        {
          "internalType": "string",
          "name": "",
          "type": "string"
        }
      ],
      "stateMutability": "view",
      "type": "function"
    },
    {
      "inputs": [
        {
          "internalType": "uint256",
          "name": "index",
          "type": "uint256"
        }
      ],
      "name": "tokenByIndex",
      "outputs": [
        {
          "internalType": "uint256",
          "name": "",
          "type": "uint256"
        }
      ],
      "stateMutability": "view",
      "type": "function"
    },
    {
      "inputs": [],
      "name": "tokenIds",
      "outputs": [
        {
          "internalType": "uint256",
          "name": "",
          "type": "uint256"
        }
      ],
      "stateMutability": "view",
      "type": "function"
    },
    {
      "inputs": [
        {
          "internalType": "address",
          "name": "owner",
          "type": "address"
        },
        {
          "internalType": "uint256",
          "name": "index",
          "type": "uint256"
        }
      ],
      "name": "tokenOfOwnerByIndex",
      "outputs": [
        {
          "internalType": "uint256",
          "name": "",
          "type": "uint256"
        }
      ],
      "stateMutability": "view",
      "type": "function"
    },
    {
      "inputs": [],
      "name": "totalSupply",
      "outputs": [
        {
          "internalType": "uint256",
          "name": "",
          "type": "uint256"
        }
      ],
      "stateMutability": "view",
      "type": "function"
    },
    {
      "inputs": [
        {
          "internalType": "address",
          "name": "from",
          "type": "address"
        },
        {
          "internalType": "address",
          "name": "to",
          "type": "address"
        },
        {
          "internalType": "uint256",
          "name": "tokenId",
          "type": "uint256"
        }
      ],
      "name": "transferFrom",
      "outputs": [],
      "stateMutability": "nonpayable",
      "type": "function"
    },
    {
      "inputs": [
        {
          "internalType": "address",
          "name": "newOwner",
          "type": "address"
        }
      ],
      "name": "transferOwnership",
      "outputs": [],
      "stateMutability": "nonpayable",
      "type": "function"
    },
    {
      "inputs": [],
      "name": "mint",
      "outputs": [],
      "stateMutability": "payable",
      "type": "function"
    },
    {
      "inputs": [
        {
          "internalType": "uint256",
          "name": "tokenId",
          "type": "uint256"
        }
      ],
      "name": "tokenURI",
      "outputs": [
        {
          "internalType": "string",
          "name": "",
          "type": "string"
        }
      ],
      "stateMutability": "view",
      "type": "function"
    },
    {
      "inputs": [
        {
          "internalType": "bool",
          "name": "val",
          "type": "bool"
        }
      ],
      "name": "setPaused",
      "outputs": [],
      "stateMutability": "nonpayable",
      "type": "function"
    },
    {
      "inputs": [],
      "name": "withdraw",
      "outputs": [],
      "stateMutability": "nonpayable",
      "type": "function"
    },
    {
      "inputs": [],
      "name": "dummyForcing",
      "outputs": [],
      "stateMutability": "nonpayable",
      "type": "function"
    }
  ],
  "bytecode": "0x6080604052655af3107a4000600c55600a600e553480156200002057600080fd5b5060405162003fc738038062003fc7833981810160405281019062000046919062000372565b6040518060400160405280600981526020017f5374657055704e465400000000000000000000000000000000000000000000008152506040518060400160405280600481526020017f534e4654000000000000000000000000000000000000000000000000000000008152508160009081620000c391906200060e565b508060019081620000d591906200060e565b505050620000f8620000ec6200011160201b60201c565b6200011960201b60201c565b80600b90816200010991906200060e565b5050620006f5565b600033905090565b6000600a60009054906101000a900473ffffffffffffffffffffffffffffffffffffffff16905081600a60006101000a81548173ffffffffffffffffffffffffffffffffffffffff021916908373ffffffffffffffffffffffffffffffffffffffff1602179055508173ffffffffffffffffffffffffffffffffffffffff168173ffffffffffffffffffffffffffffffffffffffff167f8be0079c531659141344cd1fd0a4f28419497f9722a3daafe3b4186f6b6457e060405160405180910390a35050565b6000604051905090565b600080fd5b600080fd5b600080fd5b600080fd5b6000601f19601f8301169050919050565b7f4e487b7100000000000000000000000000000000000000000000000000000000600052604160045260246000fd5b6200024882620001fd565b810181811067ffffffffffffffff821117156200026a57620002696200020e565b5b80604052505050565b60006200027f620001df565b90506200028d82826200023d565b919050565b600067ffffffffffffffff821115620002b057620002af6200020e565b5b620002bb82620001fd565b9050602081019050919050565b60005b83811015620002e8578082015181840152602081019050620002cb565b60008484015250505050565b60006200030b620003058462000292565b62000273565b9050828152602081018484840111156200032a5762000329620001f8565b5b62000337848285620002c8565b509392505050565b600082601f830112620003575762000356620001f3565b5b815162000369848260208601620002f4565b91505092915050565b6000602082840312156200038b576200038a620001e9565b5b600082015167ffffffffffffffff811115620003ac57620003ab620001ee565b5b620003ba848285016200033f565b91505092915050565b600081519050919050565b7f4e487b7100000000000000000000000000000000000000000000000000000000600052602260045260246000fd5b600060028204905060018216806200041657607f821691505b6020821081036200042c576200042b620003ce565b5b50919050565b60008190508160005260206000209050919050565b60006020601f8301049050919050565b600082821b905092915050565b600060088302620004967fffffffffffffffffffffffffffffffffffffffffffffffffffffffffffffffff8262000457565b620004a2868362000457565b95508019841693508086168417925050509392505050565b6000819050919050565b6000819050919050565b6000620004ef620004e9620004e384620004ba565b620004c4565b620004ba565b9050919050565b6000819050919050565b6200050b83620004ce565b620005236200051a82620004f6565b84845462000464565b825550505050565b600090565b6200053a6200052b565b6200054781848462000500565b505050565b5b818110156200056f576200056360008262000530565b6001810190506200054d565b5050565b601f821115620005be57620005888162000432565b620005938462000447565b81016020851015620005a3578190505b620005bb620005b28562000447565b8301826200054c565b50505b505050565b600082821c905092915050565b6000620005e360001984600802620005c3565b1980831691505092915050565b6000620005fe8383620005d0565b9150826002028217905092915050565b6200061982620003c3565b67ffffffffffffffff8111156200063557620006346200020e565b5b620006418254620003fd565b6200064e82828562000573565b600060209050601f83116001811462000686576000841562000671578287015190505b6200067d8582620005f0565b865550620006ed565b601f198416620006968662000432565b60005b82811015620006c05784890151825560018201915060208501945060208101905062000699565b86831015620006e05784890151620006dc601f891682620005d0565b8355505b6001600288020188555050505b505050505050565b6138c280620007056000396000f3fe60806040526004361061019c5760003560e01c806342842e0e116100ec5780638da5cb5b1161008a578063b88d4fde11610064578063b88d4fde14610583578063c87b56dd146105ac578063e985e9c5146105e9578063f2fde38b146106265761019c565b80638da5cb5b1461050457806395d89b411461052f578063a22cb4651461055a5761019c565b80636352211e116100c65780636352211e1461044857806370a0823114610485578063714cff56146104c2578063715018a6146104ed5761019c565b806342842e0e146103b75780634f6ccce7146103e05780635f7696211461041d5761019c565b806316c38b3c11610159578063235b6ea111610133578063235b6ea11461030f57806323b872dd1461033a5780632f745c59146103635780633ccfd60b146103a05761019c565b806316c38b3c1461029057806316c61ccc146102b957806318160ddd146102e45761019c565b806301ffc9a7146101a157806306fdde03146101de578063081812fc14610209578063095ea7b3146102465780630aa7db2b1461026f5780631249c58b14610286575b600080fd5b3480156101ad57600080fd5b506101c860048036038101906101c391906124f1565b61064f565b6040516101d59190612539565b60405180910390f35b3480156101ea57600080fd5b506101f36106c9565b60405161020091906125e4565b60405180910390f35b34801561021557600080fd5b50610230600480360381019061022b919061263c565b61075b565b60405161023d91906126aa565b60405180910390f35b34801561025257600080fd5b5061026d600480360381019061026891906126f1565b6107a1565b005b34801561027b57600080fd5b506102846108b8565b005b61028e610982565b005b34801561029c57600080fd5b506102b760048036038101906102b2919061275d565b610a85565b005b3480156102c557600080fd5b506102ce610aaa565b6040516102db9190612539565b60405180910390f35b3480156102f057600080fd5b506102f9610abd565b6040516103069190612799565b60405180910390f35b34801561031b57600080fd5b50610324610aca565b6040516103319190612799565b60405180910390f35b34801561034657600080fd5b50610361600480360381019061035c91906127b4565b610ad0565b005b34801561036f57600080fd5b5061038a600480360381019061038591906126f1565b610b30565b6040516103979190612799565b60405180910390f35b3480156103ac57600080fd5b506103b5610bd5565b005b3480156103c357600080fd5b506103de60048036038101906103d991906127b4565b610c9f565b005b3480156103ec57600080fd5b506104076004803603810190610402919061263c565b610cbf565b6040516104149190612799565b60405180910390f35b34801561042957600080fd5b50610432610d30565b60405161043f9190612799565b60405180910390f35b34801561045457600080fd5b5061046f600480360381019061046a919061263c565b610d36565b60405161047c91906126aa565b60405180910390f35b34801561049157600080fd5b506104ac60048036038101906104a79190612807565b610de7565b6040516104b99190612799565b60405180910390f35b3480156104ce57600080fd5b506104d7610e9e565b6040516104e49190612799565b60405180910390f35b3480156104f957600080fd5b50610502610ea4565b005b34801561051057600080fd5b50610519610eb8565b60405161052691906126aa565b60405180910390f35b34801561053b57600080fd5b50610544610ee2565b60405161055191906125e4565b60405180910390f35b34801561056657600080fd5b50610581600480360381019061057c9190612834565b610f74565b005b34801561058f57600080fd5b506105aa60048036038101906105a591906129a9565b610f8a565b005b3480156105b857600080fd5b506105d360048036038101906105ce919061263c565b610fec565b6040516105e091906125e4565b60405180910390f35b3480156105f557600080fd5b50610610600480360381019061060b9190612a2c565b611093565b60405161061d9190612539565b60405180910390f35b34801561063257600080fd5b5061064d60048036038101906106489190612807565b611127565b005b60007f780e9d63000000000000000000000000000000000000000000000000000000007bffffffffffffffffffffffffffffffffffffffffffffffffffffffff1916827bffffffffffffffffffffffffffffffffffffffffffffffffffffffff191614806106c257506106c1826111aa565b5b9050919050565b6060600080546106d890612a9b565b80601f016020809104026020016040519081016040528092919081815260200182805461070490612a9b565b80156107515780601f1061072657610100808354040283529160200191610751565b820191906000526020600020905b81548152906001019060200180831161073457829003601f168201915b5050505050905090565b60006107668261128c565b6004600083815260200190815260200160002060009054906101000a900473ffffffffffffffffffffffffffffffffffffffff169050919050565b60006107ac82610d36565b90508073ffffffffffffffffffffffffffffffffffffffff168373ffffffffffffffffffffffffffffffffffffffff160361081c576040517f08c379a000000000000000000000000000000000000000000000000000000000815260040161081390612b3e565b60405180910390fd5b8073ffffffffffffffffffffffffffffffffffffffff1661083b6112d7565b73ffffffffffffffffffffffffffffffffffffffff16148061086a5750610869816108646112d7565b611093565b5b6108a9576040517f08c379a00000000000000000000000000000000000000000000000000000000081526004016108a090612bd0565b60405180910390fd5b6108b383836112df565b505050565b6108c0611398565b60006108ca610eb8565b9050600047905060008273ffffffffffffffffffffffffffffffffffffffff16826040516108f790612c21565b60006040518083038185875af1925050503d8060008114610934576040519150601f19603f3d011682016040523d82523d6000602084013e610939565b606091505b505090508061097d576040517f08c379a000000000000000000000000000000000000000000000000000000000815260040161097490612c82565b60405180910390fd5b505050565b600d60009054906101000a900460ff16156109d2576040517f08c379a00000000000000000000000000000000000000000000000000000000081526004016109c990612cee565b60405180910390fd5b600e54600f5410610a18576040517f08c379a0000000000000000000000000000000000000000000000000000000008152600401610a0f90612d5a565b60405180910390fd5b600c54341015610a5d576040517f08c379a0000000000000000000000000000000000000000000000000000000008152600401610a5490612dc6565b60405180910390fd5b6001600f6000828254610a709190612e15565b92505081905550610a8333600f54611416565b565b610a8d611398565b80600d60006101000a81548160ff02191690831515021790555050565b600d60009054906101000a900460ff1681565b6000600880549050905090565b600c5481565b610ae1610adb6112d7565b82611434565b610b20576040517f08c379a0000000000000000000000000000000000000000000000000000000008152600401610b1790612ebb565b60405180910390fd5b610b2b8383836114c9565b505050565b6000610b3b83610de7565b8210610b7c576040517f08c379a0000000000000000000000000000000000000000000000000000000008152600401610b7390612f4d565b60405180910390fd5b600660008473ffffffffffffffffffffffffffffffffffffffff1673ffffffffffffffffffffffffffffffffffffffff168152602001908152602001600020600083815260200190815260200160002054905092915050565b610bdd611398565b6000610be7610eb8565b9050600047905060008273ffffffffffffffffffffffffffffffffffffffff1682604051610c1490612c21565b60006040518083038185875af1925050503d8060008114610c51576040519150601f19603f3d011682016040523d82523d6000602084013e610c56565b606091505b5050905080610c9a576040517f08c379a0000000000000000000000000000000000000000000000000000000008152600401610c9190612c82565b60405180910390fd5b505050565b610cba83838360405180602001604052806000815250610f8a565b505050565b6000610cc9610abd565b8210610d0a576040517f08c379a0000000000000000000000000000000000000000000000000000000008152600401610d0190612fdf565b60405180910390fd5b60088281548110610d1e57610d1d612fff565b5b90600052602060002001549050919050565b600e5481565b6000806002600084815260200190815260200160002060009054906101000a900473ffffffffffffffffffffffffffffffffffffffff169050600073ffffffffffffffffffffffffffffffffffffffff168173ffffffffffffffffffffffffffffffffffffffff1603610dde576040517f08c379a0000000000000000000000000000000000000000000000000000000008152600401610dd59061307a565b60405180910390fd5b80915050919050565b60008073ffffffffffffffffffffffffffffffffffffffff168273ffffffffffffffffffffffffffffffffffffffff1603610e57576040517f08c379a0000000000000000000000000000000000000000000000000000000008152600401610e4e9061310c565b60405180910390fd5b600360008373ffffffffffffffffffffffffffffffffffffffff1673ffffffffffffffffffffffffffffffffffffffff168152602001908152602001600020549050919050565b600f5481565b610eac611398565b610eb6600061172f565b565b6000600a60009054906101000a900473ffffffffffffffffffffffffffffffffffffffff16905090565b606060018054610ef190612a9b565b80601f0160208091040260200160405190810160405280929190818152602001828054610f1d90612a9b565b8015610f6a5780601f10610f3f57610100808354040283529160200191610f6a565b820191906000526020600020905b815481529060010190602001808311610f4d57829003601f168201915b5050505050905090565b610f86610f7f6112d7565b83836117f5565b5050565b610f9b610f956112d7565b83611434565b610fda576040517f08c379a0000000000000000000000000000000000000000000000000000000008152600401610fd190612ebb565b60405180910390fd5b610fe684848484611961565b50505050565b6060610ff7826119bd565b611036576040517f08c379a000000000000000000000000000000000000000000000000000000000815260040161102d9061319e565b60405180910390fd5b6000611040611a29565b90506000815111611060576040518060200160405280600081525061108b565b8061106a84611abb565b60405160200161107b929190613246565b6040516020818303038152906040525b915050919050565b6000600560008473ffffffffffffffffffffffffffffffffffffffff1673ffffffffffffffffffffffffffffffffffffffff16815260200190815260200160002060008373ffffffffffffffffffffffffffffffffffffffff1673ffffffffffffffffffffffffffffffffffffffff16815260200190815260200160002060009054906101000a900460ff16905092915050565b61112f611398565b600073ffffffffffffffffffffffffffffffffffffffff168173ffffffffffffffffffffffffffffffffffffffff160361119e576040517f08c379a0000000000000000000000000000000000000000000000000000000008152600401611195906132e7565b60405180910390fd5b6111a78161172f565b50565b60007f80ac58cd000000000000000000000000000000000000000000000000000000007bffffffffffffffffffffffffffffffffffffffffffffffffffffffff1916827bffffffffffffffffffffffffffffffffffffffffffffffffffffffff1916148061127557507f5b5e139f000000000000000000000000000000000000000000000000000000007bffffffffffffffffffffffffffffffffffffffffffffffffffffffff1916827bffffffffffffffffffffffffffffffffffffffffffffffffffffffff1916145b80611285575061128482611c1b565b5b9050919050565b611295816119bd565b6112d4576040517f08c379a00000000000000000000000000000000000000000000000000000000081526004016112cb9061307a565b60405180910390fd5b50565b600033905090565b816004600083815260200190815260200160002060006101000a81548173ffffffffffffffffffffffffffffffffffffffff021916908373ffffffffffffffffffffffffffffffffffffffff160217905550808273ffffffffffffffffffffffffffffffffffffffff1661135283610d36565b73ffffffffffffffffffffffffffffffffffffffff167f8c5be1e5ebec7d5bd14f71427d1e84f3dd0314c0f7b2291e5b200ac8c7c3b92560405160405180910390a45050565b6113a06112d7565b73ffffffffffffffffffffffffffffffffffffffff166113be610eb8565b73ffffffffffffffffffffffffffffffffffffffff1614611414576040517f08c379a000000000000000000000000000000000000000000000000000000000815260040161140b90613353565b60405180910390fd5b565b611430828260405180602001604052806000815250611c85565b5050565b60008061144083610d36565b90508073ffffffffffffffffffffffffffffffffffffffff168473ffffffffffffffffffffffffffffffffffffffff16148061148257506114818185611093565b5b806114c057508373ffffffffffffffffffffffffffffffffffffffff166114a88461075b565b73ffffffffffffffffffffffffffffffffffffffff16145b91505092915050565b8273ffffffffffffffffffffffffffffffffffffffff166114e982610d36565b73ffffffffffffffffffffffffffffffffffffffff161461153f576040517f08c379a0000000000000000000000000000000000000000000000000000000008152600401611536906133e5565b60405180910390fd5b600073ffffffffffffffffffffffffffffffffffffffff168273ffffffffffffffffffffffffffffffffffffffff16036115ae576040517f08c379a00000000000000000000000000000000000000000000000000000000081526004016115a590613477565b60405180910390fd5b6115b9838383611ce0565b6115c46000826112df565b6001600360008573ffffffffffffffffffffffffffffffffffffffff1673ffffffffffffffffffffffffffffffffffffffff16815260200190815260200160002060008282546116149190613497565b925050819055506001600360008473ffffffffffffffffffffffffffffffffffffffff1673ffffffffffffffffffffffffffffffffffffffff168152602001908152602001600020600082825461166b9190612e15565b92505081905550816002600083815260200190815260200160002060006101000a81548173ffffffffffffffffffffffffffffffffffffffff021916908373ffffffffffffffffffffffffffffffffffffffff160217905550808273ffffffffffffffffffffffffffffffffffffffff168473ffffffffffffffffffffffffffffffffffffffff167fddf252ad1be2c89b69c2b068fc378daa952ba7f163c4a11628f55a4df523b3ef60405160405180910390a461172a838383611df2565b505050565b6000600a60009054906101000a900473ffffffffffffffffffffffffffffffffffffffff16905081600a60006101000a81548173ffffffffffffffffffffffffffffffffffffffff021916908373ffffffffffffffffffffffffffffffffffffffff1602179055508173ffffffffffffffffffffffffffffffffffffffff168173ffffffffffffffffffffffffffffffffffffffff167f8be0079c531659141344cd1fd0a4f28419497f9722a3daafe3b4186f6b6457e060405160405180910390a35050565b8173ffffffffffffffffffffffffffffffffffffffff168373ffffffffffffffffffffffffffffffffffffffff1603611863576040517f08c379a000000000000000000000000000000000000000000000000000000000815260040161185a90613517565b60405180910390fd5b80600560008573ffffffffffffffffffffffffffffffffffffffff1673ffffffffffffffffffffffffffffffffffffffff16815260200190815260200160002060008473ffffffffffffffffffffffffffffffffffffffff1673ffffffffffffffffffffffffffffffffffffffff16815260200190815260200160002060006101000a81548160ff0219169083151502179055508173ffffffffffffffffffffffffffffffffffffffff168373ffffffffffffffffffffffffffffffffffffffff167f17307eab39ab6107e8899845ad3d59bd9653f200f220920489ca2b5937696c31836040516119549190612539565b60405180910390a3505050565b61196c8484846114c9565b61197884848484611df7565b6119b7576040517f08c379a00000000000000000000000000000000000000000000000000000000081526004016119ae906135a9565b60405180910390fd5b50505050565b60008073ffffffffffffffffffffffffffffffffffffffff166002600084815260200190815260200160002060009054906101000a900473ffffffffffffffffffffffffffffffffffffffff1673ffffffffffffffffffffffffffffffffffffffff1614159050919050565b6060600b8054611a3890612a9b565b80601f0160208091040260200160405190810160405280929190818152602001828054611a6490612a9b565b8015611ab15780601f10611a8657610100808354040283529160200191611ab1565b820191906000526020600020905b815481529060010190602001808311611a9457829003601f168201915b5050505050905090565b606060008203611b02576040518060400160405280600181526020017f30000000000000000000000000000000000000000000000000000000000000008152509050611c16565b600082905060005b60008214611b34578080611b1d906135c9565b915050600a82611b2d9190613640565b9150611b0a565b60008167ffffffffffffffff811115611b5057611b4f61287e565b5b6040519080825280601f01601f191660200182016040528015611b825781602001600182028036833780820191505090505b5090505b60008514611c0f57600182611b9b9190613497565b9150600a85611baa9190613671565b6030611bb69190612e15565b60f81b818381518110611bcc57611bcb612fff565b5b60200101907effffffffffffffffffffffffffffffffffffffffffffffffffffffffffffff1916908160001a905350600a85611c089190613640565b9450611b86565b8093505050505b919050565b60007f01ffc9a7000000000000000000000000000000000000000000000000000000007bffffffffffffffffffffffffffffffffffffffffffffffffffffffff1916827bffffffffffffffffffffffffffffffffffffffffffffffffffffffff1916149050919050565b611c8f8383611f7e565b611c9c6000848484611df7565b611cdb576040517f08c379a0000000000000000000000000000000000000000000000000000000008152600401611cd2906135a9565b60405180910390fd5b505050565b611ceb838383612157565b600073ffffffffffffffffffffffffffffffffffffffff168373ffffffffffffffffffffffffffffffffffffffff1603611d2d57611d288161215c565b611d6c565b8173ffffffffffffffffffffffffffffffffffffffff168373ffffffffffffffffffffffffffffffffffffffff1614611d6b57611d6a83826121a5565b5b5b600073ffffffffffffffffffffffffffffffffffffffff168273ffffffffffffffffffffffffffffffffffffffff1603611dae57611da981612312565b611ded565b8273ffffffffffffffffffffffffffffffffffffffff168273ffffffffffffffffffffffffffffffffffffffff1614611dec57611deb82826123e3565b5b5b505050565b505050565b6000611e188473ffffffffffffffffffffffffffffffffffffffff16612462565b15611f71578373ffffffffffffffffffffffffffffffffffffffff1663150b7a02611e416112d7565b8786866040518563ffffffff1660e01b8152600401611e6394939291906136f7565b6020604051808303816000875af1925050508015611e9f57506040513d601f19601f82011682018060405250810190611e9c9190613758565b60015b611f21573d8060008114611ecf576040519150601f19603f3d011682016040523d82523d6000602084013e611ed4565b606091505b506000815103611f19576040517f08c379a0000000000000000000000000000000000000000000000000000000008152600401611f10906135a9565b60405180910390fd5b805181602001fd5b63150b7a0260e01b7bffffffffffffffffffffffffffffffffffffffffffffffffffffffff1916817bffffffffffffffffffffffffffffffffffffffffffffffffffffffff191614915050611f76565b600190505b949350505050565b600073ffffffffffffffffffffffffffffffffffffffff168273ffffffffffffffffffffffffffffffffffffffff1603611fed576040517f08c379a0000000000000000000000000000000000000000000000000000000008152600401611fe4906137d1565b60405180910390fd5b611ff6816119bd565b15612036576040517f08c379a000000000000000000000000000000000000000000000000000000000815260040161202d9061383d565b60405180910390fd5b61204260008383611ce0565b6001600360008473ffffffffffffffffffffffffffffffffffffffff1673ffffffffffffffffffffffffffffffffffffffff16815260200190815260200160002060008282546120929190612e15565b92505081905550816002600083815260200190815260200160002060006101000a81548173ffffffffffffffffffffffffffffffffffffffff021916908373ffffffffffffffffffffffffffffffffffffffff160217905550808273ffffffffffffffffffffffffffffffffffffffff16600073ffffffffffffffffffffffffffffffffffffffff167fddf252ad1be2c89b69c2b068fc378daa952ba7f163c4a11628f55a4df523b3ef60405160405180910390a461215360008383611df2565b5050565b505050565b6008805490506009600083815260200190815260200160002081905550600881908060018154018082558091505060019003906000526020600020016000909190919091505550565b600060016121b284610de7565b6121bc9190613497565b90506000600760008481526020019081526020016000205490508181146122a1576000600660008673ffffffffffffffffffffffffffffffffffffffff1673ffffffffffffffffffffffffffffffffffffffff168152602001908152602001600020600084815260200190815260200160002054905080600660008773ffffffffffffffffffffffffffffffffffffffff1673ffffffffffffffffffffffffffffffffffffffff168152602001908152602001600020600084815260200190815260200160002081905550816007600083815260200190815260200160002081905550505b6007600084815260200190815260200160002060009055600660008573ffffffffffffffffffffffffffffffffffffffff1673ffffffffffffffffffffffffffffffffffffffff16815260200190815260200160002060008381526020019081526020016000206000905550505050565b600060016008805490506123269190613497565b905060006009600084815260200190815260200160002054905060006008838154811061235657612355612fff565b5b90600052602060002001549050806008838154811061237857612377612fff565b5b9060005260206000200181905550816009600083815260200190815260200160002081905550600960008581526020019081526020016000206000905560088054806123c7576123c661385d565b5b6001900381819060005260206000200160009055905550505050565b60006123ee83610de7565b905081600660008573ffffffffffffffffffffffffffffffffffffffff1673ffffffffffffffffffffffffffffffffffffffff168152602001908152602001600020600083815260200190815260200160002081905550806007600084815260200190815260200160002081905550505050565b6000808273ffffffffffffffffffffffffffffffffffffffff163b119050919050565b6000604051905090565b600080fd5b600080fd5b60007fffffffff0000000000000000000000000000000000000000000000000000000082169050919050565b6124ce81612499565b81146124d957600080fd5b50565b6000813590506124eb816124c5565b92915050565b6000602082840312156125075761250661248f565b5b6000612515848285016124dc565b91505092915050565b60008115159050919050565b6125338161251e565b82525050565b600060208201905061254e600083018461252a565b92915050565b600081519050919050565b600082825260208201905092915050565b60005b8381101561258e578082015181840152602081019050612573565b60008484015250505050565b6000601f19601f8301169050919050565b60006125b682612554565b6125c0818561255f565b93506125d0818560208601612570565b6125d98161259a565b840191505092915050565b600060208201905081810360008301526125fe81846125ab565b905092915050565b6000819050919050565b61261981612606565b811461262457600080fd5b50565b60008135905061263681612610565b92915050565b6000602082840312156126525761265161248f565b5b600061266084828501612627565b91505092915050565b600073ffffffffffffffffffffffffffffffffffffffff82169050919050565b600061269482612669565b9050919050565b6126a481612689565b82525050565b60006020820190506126bf600083018461269b565b92915050565b6126ce81612689565b81146126d957600080fd5b50565b6000813590506126eb816126c5565b92915050565b600080604083850312156127085761270761248f565b5b6000612716858286016126dc565b925050602061272785828601612627565b9150509250929050565b61273a8161251e565b811461274557600080fd5b50565b60008135905061275781612731565b92915050565b6000602082840312156127735761277261248f565b5b600061278184828501612748565b91505092915050565b61279381612606565b82525050565b60006020820190506127ae600083018461278a565b92915050565b6000806000606084860312156127cd576127cc61248f565b5b60006127db868287016126dc565b93505060206127ec868287016126dc565b92505060406127fd86828701612627565b9150509250925092565b60006020828403121561281d5761281c61248f565b5b600061282b848285016126dc565b91505092915050565b6000806040838503121561284b5761284a61248f565b5b6000612859858286016126dc565b925050602061286a85828601612748565b9150509250929050565b600080fd5b600080fd5b7f4e487b7100000000000000000000000000000000000000000000000000000000600052604160045260246000fd5b6128b68261259a565b810181811067ffffffffffffffff821117156128d5576128d461287e565b5b80604052505050565b60006128e8612485565b90506128f482826128ad565b919050565b600067ffffffffffffffff8211156129145761291361287e565b5b61291d8261259a565b9050602081019050919050565b82818337600083830152505050565b600061294c612947846128f9565b6128de565b90508281526020810184848401111561296857612967612879565b5b61297384828561292a565b509392505050565b600082601f8301126129905761298f612874565b5b81356129a0848260208601612939565b91505092915050565b600080600080608085870312156129c3576129c261248f565b5b60006129d1878288016126dc565b94505060206129e2878288016126dc565b93505060406129f387828801612627565b925050606085013567ffffffffffffffff811115612a1457612a13612494565b5b612a208782880161297b565b91505092959194509250565b60008060408385031215612a4357612a4261248f565b5b6000612a51858286016126dc565b9250506020612a62858286016126dc565b9150509250929050565b7f4e487b7100000000000000000000000000000000000000000000000000000000600052602260045260246000fd5b60006002820490506001821680612ab357607f821691505b602082108103612ac657612ac5612a6c565b5b50919050565b7f4552433732313a20617070726f76616c20746f2063757272656e74206f776e6560008201527f7200000000000000000000000000000000000000000000000000000000000000602082015250565b6000612b2860218361255f565b9150612b3382612acc565b604082019050919050565b60006020820190508181036000830152612b5781612b1b565b9050919050565b7f4552433732313a20617070726f76652063616c6c6572206973206e6f7420746f60008201527f6b656e206f776e6572206e6f7220617070726f76656420666f7220616c6c0000602082015250565b6000612bba603e8361255f565b9150612bc582612b5e565b604082019050919050565b60006020820190508181036000830152612be981612bad565b9050919050565b600081905092915050565b50565b6000612c0b600083612bf0565b9150612c1682612bfb565b600082019050919050565b6000612c2c82612bfe565b9150819050919050565b7f4661696c656420746f2073656e64204574686572000000000000000000000000600082015250565b6000612c6c60148361255f565b9150612c7782612c36565b602082019050919050565b60006020820190508181036000830152612c9b81612c5f565b9050919050565b7f436f6e74726163742063757272656e746c792070617573656400000000000000600082015250565b6000612cd860198361255f565b9150612ce382612ca2565b602082019050919050565b60006020820190508181036000830152612d0781612ccb565b9050919050565b7f457863656564206d6178696d756d204e465420737570706c7900000000000000600082015250565b6000612d4460198361255f565b9150612d4f82612d0e565b602082019050919050565b60006020820190508181036000830152612d7381612d37565b9050919050565b7f45746865722073656e74206973206e6f7420636f727265637400000000000000600082015250565b6000612db060198361255f565b9150612dbb82612d7a565b602082019050919050565b60006020820190508181036000830152612ddf81612da3565b9050919050565b7f4e487b7100000000000000000000000000000000000000000000000000000000600052601160045260246000fd5b6000612e2082612606565b9150612e2b83612606565b9250828201905080821115612e4357612e42612de6565b5b92915050565b7f4552433732313a2063616c6c6572206973206e6f7420746f6b656e206f776e6560008201527f72206e6f7220617070726f766564000000000000000000000000000000000000602082015250565b6000612ea5602e8361255f565b9150612eb082612e49565b604082019050919050565b60006020820190508181036000830152612ed481612e98565b9050919050565b7f455243373231456e756d657261626c653a206f776e657220696e646578206f7560008201527f74206f6620626f756e6473000000000000000000000000000000000000000000602082015250565b6000612f37602b8361255f565b9150612f4282612edb565b604082019050919050565b60006020820190508181036000830152612f6681612f2a565b9050919050565b7f455243373231456e756d657261626c653a20676c6f62616c20696e646578206f60008201527f7574206f6620626f756e64730000000000000000000000000000000000000000602082015250565b6000612fc9602c8361255f565b9150612fd482612f6d565b604082019050919050565b60006020820190508181036000830152612ff881612fbc565b9050919050565b7f4e487b7100000000000000000000000000000000000000000000000000000000600052603260045260246000fd5b7f4552433732313a20696e76616c696420746f6b656e2049440000000000000000600082015250565b600061306460188361255f565b915061306f8261302e565b602082019050919050565b6000602082019050818103600083015261309381613057565b9050919050565b7f4552433732313a2061646472657373207a65726f206973206e6f74206120766160008201527f6c6964206f776e65720000000000000000000000000000000000000000000000602082015250565b60006130f660298361255f565b91506131018261309a565b604082019050919050565b60006020820190508181036000830152613125816130e9565b9050919050565b7f4552433732314d657461646174613a2055524920717565727920666f72206e6f60008201527f6e6578697374656e7420746f6b656e0000000000000000000000000000000000602082015250565b6000613188602f8361255f565b91506131938261312c565b604082019050919050565b600060208201905081810360008301526131b78161317b565b9050919050565b600081905092915050565b60006131d482612554565b6131de81856131be565b93506131ee818560208601612570565b80840191505092915050565b7f2e6a736f6e000000000000000000000000000000000000000000000000000000600082015250565b60006132306005836131be565b915061323b826131fa565b600582019050919050565b600061325282856131c9565b915061325e82846131c9565b915061326982613223565b91508190509392505050565b7f4f776e61626c653a206e6577206f776e657220697320746865207a65726f206160008201527f6464726573730000000000000000000000000000000000000000000000000000602082015250565b60006132d160268361255f565b91506132dc82613275565b604082019050919050565b60006020820190508181036000830152613300816132c4565b9050919050565b7f4f776e61626c653a2063616c6c6572206973206e6f7420746865206f776e6572600082015250565b600061333d60208361255f565b915061334882613307565b602082019050919050565b6000602082019050818103600083015261336c81613330565b9050919050565b7f4552433732313a207472616e736665722066726f6d20696e636f72726563742060008201527f6f776e6572000000000000000000000000000000000000000000000000000000602082015250565b60006133cf60258361255f565b91506133da82613373565b604082019050919050565b600060208201905081810360008301526133fe816133c2565b9050919050565b7f4552433732313a207472616e7366657220746f20746865207a65726f2061646460008201527f7265737300000000000000000000000000000000000000000000000000000000602082015250565b600061346160248361255f565b915061346c82613405565b604082019050919050565b6000602082019050818103600083015261349081613454565b9050919050565b60006134a282612606565b91506134ad83612606565b92508282039050818111156134c5576134c4612de6565b5b92915050565b7f4552433732313a20617070726f766520746f2063616c6c657200000000000000600082015250565b600061350160198361255f565b915061350c826134cb565b602082019050919050565b60006020820190508181036000830152613530816134f4565b9050919050565b7f4552433732313a207472616e7366657220746f206e6f6e20455243373231526560008201527f63656976657220696d706c656d656e7465720000000000000000000000000000602082015250565b600061359360328361255f565b915061359e82613537565b604082019050919050565b600060208201905081810360008301526135c281613586565b9050919050565b60006135d482612606565b91507fffffffffffffffffffffffffffffffffffffffffffffffffffffffffffffffff820361360657613605612de6565b5b600182019050919050565b7f4e487b7100000000000000000000000000000000000000000000000000000000600052601260045260246000fd5b600061364b82612606565b915061365683612606565b92508261366657613665613611565b5b828204905092915050565b600061367c82612606565b915061368783612606565b92508261369757613696613611565b5b828206905092915050565b600081519050919050565b600082825260208201905092915050565b60006136c9826136a2565b6136d381856136ad565b93506136e3818560208601612570565b6136ec8161259a565b840191505092915050565b600060808201905061370c600083018761269b565b613719602083018661269b565b613726604083018561278a565b818103606083015261373881846136be565b905095945050505050565b600081519050613752816124c5565b92915050565b60006020828403121561376e5761376d61248f565b5b600061377c84828501613743565b91505092915050565b7f4552433732313a206d696e7420746f20746865207a65726f2061646472657373600082015250565b60006137bb60208361255f565b91506137c682613785565b602082019050919050565b600060208201905081810360008301526137ea816137ae565b9050919050565b7f4552433732313a20746f6b656e20616c7265616479206d696e74656400000000600082015250565b6000613827601c8361255f565b9150613832826137f1565b602082019050919050565b600060208201905081810360008301526138568161381a565b9050919050565b7f4e487b7100000000000000000000000000000000000000000000000000000000600052603160045260246000fdfea264697066735822122015bddbb9040e1c525e33af76add887e6c6199510ada950f2259287cefe5795fb64736f6c63430008110033",
  "immutableReferences": {},
  "source": "// SPDX-License-Identifier: MIT\npragma solidity ^0.8.17;\n\nimport \"@openzeppelin/contracts/token/ERC721/extensions/ERC721Enumerable.sol\";\nimport \"@openzeppelin/contracts/access/Ownable.sol\";\n\nimport \"@openzeppelin/contracts/utils/Strings.sol\";\n\ncontract StepUpNFT is ERC721Enumerable, Ownable {\n    using Strings for uint256;\n    /**\n     * @dev _baseTokenURI for computing {tokenURI}. If set, the resulting URI for each\n     * token will be the concatenation of the `baseURI` and the `tokenId`.\n     */\n    string _baseTokenURI;\n\n    //  _price is the price of one NFT\n    uint256 public _price = 0.0001 ether;\n\n    // _paused is used to pause the contract in case of an emergency\n    bool public _paused;\n\n    // max number of NFT\n    uint256 public maxTokenIds = 10;\n\n    // total number of tokenIds minted\n    uint256 public tokenIds;\n\n    modifier onlyWhenNotPaused() {\n        require(!_paused, \"Contract currently paused\");\n        _;\n    }\n\n    /**\n     * @dev ERC721 constructor takes in a `name` and a `symbol` to the token collection.\n     * name in our case is `NFT` and symbol is `LW3P`.\n     * Constructor for LW3P takes in the baseURI to set _baseTokenURI for the collection.\n     */\n    constructor(string memory baseURI) ERC721(\"StepUpNFT\", \"SNFT\") {\n        _baseTokenURI = baseURI;\n    }\n\n    /**\n     * @dev mint allows an user to mint 1 NFT per transaction.\n     */\n    function mint() public payable onlyWhenNotPaused {\n        require(tokenIds < maxTokenIds, \"Exceed maximum NFT supply\");\n        require(msg.value >= _price, \"Ether sent is not correct\");\n        tokenIds += 1;\n        _safeMint(msg.sender, tokenIds);\n    }\n\n    /**\n     * @dev _baseURI overides the Openzeppelin's ERC721 implementation which by default\n     * returned an empty string for the baseURI\n     */\n    function _baseURI() internal view virtual override returns (string memory) {\n        return _baseTokenURI;\n    }\n\n    /**\n     * @dev tokenURI overides the Openzeppelin's ERC721 implementation for tokenURI function\n     * This function returns the URI from where we can extract the metadata for a given tokenId\n     */\n    function tokenURI(uint256 tokenId)\n        public\n        view\n        virtual\n        override\n        returns (string memory)\n    {\n        require(\n            _exists(tokenId),\n            \"ERC721Metadata: URI query for nonexistent token\"\n        );\n\n        string memory baseURI = _baseURI();\n        // Here it checks if the length of the baseURI is greater than 0, if it is return the baseURI and attach\n        // the tokenId and `.json` to it so that it knows the location of the metadata json file for a given\n        // tokenId stored on IPFS\n        // If baseURI is empty return an empty string\n        return\n            bytes(baseURI).length > 0\n                ? string(abi.encodePacked(baseURI, tokenId.toString(), \".json\")) // ? string(abi.encodePacked(baseURI, tokenId, \".json\"))\n                : \"\";\n    }\n\n    /**\n     * @dev setPaused makes the contract paused or unpaused\n     */\n    function setPaused(bool val) public onlyOwner {\n        _paused = val;\n    }\n\n    /**\n     * @dev withdraw sends all the ether in the contract\n     * to the owner of the contract\n     */\n    function withdraw() public onlyOwner {\n        address _owner = owner();\n        uint256 amount = address(this).balance;\n        (bool sent, ) = _owner.call{value: amount}(\"\");\n        require(sent, \"Failed to send Ether\");\n    }\n\n    /**\n     * @dev withdraw sends all the ether in the contract\n     * to the owner of the contract\n     */\n    function dummyForcing() public onlyOwner {\n        address _owner = owner();\n        uint256 amount = address(this).balance;\n        (bool sent, ) = _owner.call{value: amount}(\"\");\n        require(sent, \"Failed to send Ether\");\n    }\n}\n",
  "sourcePath": "C:\\Users\\Sudeep\\Desktop\\nft_ipfs\\bc\\contracts\\NFT.sol",
  "compiler": {
    "name": "solc",
    "version": "0.8.17+commit.8df45f5f.Emscripten.clang"
  },
  "schemaVersion": "3.4.2",
  "updatedAt": "2022-10-11T11:57:25.600Z",
  "devdoc": {
    "kind": "dev",
    "methods": {
      "approve(address,uint256)": {
        "details": "See {IERC721-approve}."
      },
      "balanceOf(address)": {
        "details": "See {IERC721-balanceOf}."
      },
      "constructor": {
        "details": "ERC721 constructor takes in a `name` and a `symbol` to the token collection. name in our case is `NFT` and symbol is `LW3P`. Constructor for LW3P takes in the baseURI to set _baseTokenURI for the collection."
      },
      "dummyForcing()": {
        "details": "withdraw sends all the ether in the contract to the owner of the contract"
      },
      "getApproved(uint256)": {
        "details": "See {IERC721-getApproved}."
      },
      "isApprovedForAll(address,address)": {
        "details": "See {IERC721-isApprovedForAll}."
      },
      "mint()": {
        "details": "mint allows an user to mint 1 NFT per transaction."
      },
      "name()": {
        "details": "See {IERC721Metadata-name}."
      },
      "owner()": {
        "details": "Returns the address of the current owner."
      },
      "ownerOf(uint256)": {
        "details": "See {IERC721-ownerOf}."
      },
      "renounceOwnership()": {
        "details": "Leaves the contract without owner. It will not be possible to call `onlyOwner` functions anymore. Can only be called by the current owner. NOTE: Renouncing ownership will leave the contract without an owner, thereby removing any functionality that is only available to the owner."
      },
      "safeTransferFrom(address,address,uint256)": {
        "details": "See {IERC721-safeTransferFrom}."
      },
      "safeTransferFrom(address,address,uint256,bytes)": {
        "details": "See {IERC721-safeTransferFrom}."
      },
      "setApprovalForAll(address,bool)": {
        "details": "See {IERC721-setApprovalForAll}."
      },
      "setPaused(bool)": {
        "details": "setPaused makes the contract paused or unpaused"
      },
      "supportsInterface(bytes4)": {
        "details": "See {IERC165-supportsInterface}."
      },
      "symbol()": {
        "details": "See {IERC721Metadata-symbol}."
      },
      "tokenByIndex(uint256)": {
        "details": "See {IERC721Enumerable-tokenByIndex}."
      },
      "tokenOfOwnerByIndex(address,uint256)": {
        "details": "See {IERC721Enumerable-tokenOfOwnerByIndex}."
      },
      "tokenURI(uint256)": {
        "details": "tokenURI overides the Openzeppelin's ERC721 implementation for tokenURI function This function returns the URI from where we can extract the metadata for a given tokenId"
      },
      "totalSupply()": {
        "details": "See {IERC721Enumerable-totalSupply}."
      },
      "transferFrom(address,address,uint256)": {
        "details": "See {IERC721-transferFrom}."
      },
      "transferOwnership(address)": {
        "details": "Transfers ownership of the contract to a new account (`newOwner`). Can only be called by the current owner."
      },
      "withdraw()": {
        "details": "withdraw sends all the ether in the contract to the owner of the contract"
      }
    },
    "stateVariables": {
      "_baseTokenURI": {
        "details": "_baseTokenURI for computing {tokenURI}. If set, the resulting URI for each token will be the concatenation of the `baseURI` and the `tokenId`."
      }
    },
    "version": 1
  },
  "userdoc": {
    "kind": "user",
    "methods": {},
    "version": 1
  }
}