{
  "contractName": "STUNFT",
  "abi": [
    {
      "inputs": [
        {
          "internalType": "string",
          "name": "baseURI",
          "type": "string"
        }
      ],
      "stateMutability": "nonpayable",
      "type": "constructor"
    },
    {
      "anonymous": false,
      "inputs": [
        {
          "indexed": true,
          "internalType": "address",
          "name": "owner",
          "type": "address"
        },
        {
          "indexed": true,
          "internalType": "address",
          "name": "approved",
          "type": "address"
        },
        {
          "indexed": true,
          "internalType": "uint256",
          "name": "tokenId",
          "type": "uint256"
        }
      ],
      "name": "Approval",
      "type": "event"
    },
    {
      "anonymous": false,
      "inputs": [
        {
          "indexed": true,
          "internalType": "address",
          "name": "owner",
          "type": "address"
        },
        {
          "indexed": true,
          "internalType": "address",
          "name": "operator",
          "type": "address"
        },
        {
          "indexed": false,
          "internalType": "bool",
          "name": "approved",
          "type": "bool"
        }
      ],
      "name": "ApprovalForAll",
      "type": "event"
    },
    {
      "anonymous": false,
      "inputs": [
        {
          "indexed": true,
          "internalType": "address",
          "name": "previousOwner",
          "type": "address"
        },
        {
          "indexed": true,
          "internalType": "address",
          "name": "newOwner",
          "type": "address"
        }
      ],
      "name": "OwnershipTransferred",
      "type": "event"
    },
    {
      "anonymous": false,
      "inputs": [
        {
          "indexed": true,
          "internalType": "address",
          "name": "from",
          "type": "address"
        },
        {
          "indexed": true,
          "internalType": "address",
          "name": "to",
          "type": "address"
        },
        {
          "indexed": true,
          "internalType": "uint256",
          "name": "tokenId",
          "type": "uint256"
        }
      ],
      "name": "Transfer",
      "type": "event"
    },
    {
      "inputs": [],
      "name": "_paused",
      "outputs": [
        {
          "internalType": "bool",
          "name": "",
          "type": "bool"
        }
      ],
      "stateMutability": "view",
      "type": "function",
      "constant": true
    },
    {
      "inputs": [],
      "name": "_price",
      "outputs": [
        {
          "internalType": "uint256",
          "name": "",
          "type": "uint256"
        }
      ],
      "stateMutability": "view",
      "type": "function",
      "constant": true
    },
    {
      "inputs": [
        {
          "internalType": "address",
          "name": "to",
          "type": "address"
        },
        {
          "internalType": "uint256",
          "name": "tokenId",
          "type": "uint256"
        }
      ],
      "name": "approve",
      "outputs": [],
      "stateMutability": "nonpayable",
      "type": "function"
    },
    {
      "inputs": [
        {
          "internalType": "address",
          "name": "owner",
          "type": "address"
        }
      ],
      "name": "balanceOf",
      "outputs": [
        {
          "internalType": "uint256",
          "name": "",
          "type": "uint256"
        }
      ],
      "stateMutability": "view",
      "type": "function",
      "constant": true
    },
    {
      "inputs": [
        {
          "internalType": "uint256",
          "name": "tokenId",
          "type": "uint256"
        }
      ],
      "name": "getApproved",
      "outputs": [
        {
          "internalType": "address",
          "name": "",
          "type": "address"
        }
      ],
      "stateMutability": "view",
      "type": "function",
      "constant": true
    },
    {
      "inputs": [
        {
          "internalType": "address",
          "name": "owner",
          "type": "address"
        },
        {
          "internalType": "address",
          "name": "operator",
          "type": "address"
        }
      ],
      "name": "isApprovedForAll",
      "outputs": [
        {
          "internalType": "bool",
          "name": "",
          "type": "bool"
        }
      ],
      "stateMutability": "view",
      "type": "function",
      "constant": true
    },
    {
      "inputs": [],
      "name": "maxTokenIds",
      "outputs": [
        {
          "internalType": "uint256",
          "name": "",
          "type": "uint256"
        }
      ],
      "stateMutability": "view",
      "type": "function",
      "constant": true
    },
    {
      "inputs": [],
      "name": "name",
      "outputs": [
        {
          "internalType": "string",
          "name": "",
          "type": "string"
        }
      ],
      "stateMutability": "view",
      "type": "function",
      "constant": true
    },
    {
      "inputs": [],
      "name": "owner",
      "outputs": [
        {
          "internalType": "address",
          "name": "",
          "type": "address"
        }
      ],
      "stateMutability": "view",
      "type": "function",
      "constant": true
    },
    {
      "inputs": [
        {
          "internalType": "uint256",
          "name": "tokenId",
          "type": "uint256"
        }
      ],
      "name": "ownerOf",
      "outputs": [
        {
          "internalType": "address",
          "name": "",
          "type": "address"
        }
      ],
      "stateMutability": "view",
      "type": "function",
      "constant": true
    },
    {
      "inputs": [],
      "name": "renounceOwnership",
      "outputs": [],
      "stateMutability": "nonpayable",
      "type": "function"
    },
    {
      "inputs": [
        {
          "internalType": "address",
          "name": "from",
          "type": "address"
        },
        {
          "internalType": "address",
          "name": "to",
          "type": "address"
        },
        {
          "internalType": "uint256",
          "name": "tokenId",
          "type": "uint256"
        }
      ],
      "name": "safeTransferFrom",
      "outputs": [],
      "stateMutability": "nonpayable",
      "type": "function"
    },
    {
      "inputs": [
        {
          "internalType": "address",
          "name": "from",
          "type": "address"
        },
        {
          "internalType": "address",
          "name": "to",
          "type": "address"
        },
        {
          "internalType": "uint256",
          "name": "tokenId",
          "type": "uint256"
        },
        {
          "internalType": "bytes",
          "name": "data",
          "type": "bytes"
        }
      ],
      "name": "safeTransferFrom",
      "outputs": [],
      "stateMutability": "nonpayable",
      "type": "function"
    },
    {
      "inputs": [
        {
          "internalType": "address",
          "name": "operator",
          "type": "address"
        },
        {
          "internalType": "bool",
          "name": "approved",
          "type": "bool"
        }
      ],
      "name": "setApprovalForAll",
      "outputs": [],
      "stateMutability": "nonpayable",
      "type": "function"
    },
    {
      "inputs": [
        {
          "internalType": "bytes4",
          "name": "interfaceId",
          "type": "bytes4"
        }
      ],
      "name": "supportsInterface",
      "outputs": [
        {
          "internalType": "bool",
          "name": "",
          "type": "bool"
        }
      ],
      "stateMutability": "view",
      "type": "function",
      "constant": true
    },
    {
      "inputs": [],
      "name": "symbol",
      "outputs": [
        {
          "internalType": "string",
          "name": "",
          "type": "string"
        }
      ],
      "stateMutability": "view",
      "type": "function",
      "constant": true
    },
    {
      "inputs": [
        {
          "internalType": "uint256",
          "name": "index",
          "type": "uint256"
        }
      ],
      "name": "tokenByIndex",
      "outputs": [
        {
          "internalType": "uint256",
          "name": "",
          "type": "uint256"
        }
      ],
      "stateMutability": "view",
      "type": "function",
      "constant": true
    },
    {
      "inputs": [],
      "name": "tokenIds",
      "outputs": [
        {
          "internalType": "uint256",
          "name": "",
          "type": "uint256"
        }
      ],
      "stateMutability": "view",
      "type": "function",
      "constant": true
    },
    {
      "inputs": [
        {
          "internalType": "address",
          "name": "owner",
          "type": "address"
        },
        {
          "internalType": "uint256",
          "name": "index",
          "type": "uint256"
        }
      ],
      "name": "tokenOfOwnerByIndex",
      "outputs": [
        {
          "internalType": "uint256",
          "name": "",
          "type": "uint256"
        }
      ],
      "stateMutability": "view",
      "type": "function",
      "constant": true
    },
    {
      "inputs": [],
      "name": "totalSupply",
      "outputs": [
        {
          "internalType": "uint256",
          "name": "",
          "type": "uint256"
        }
      ],
      "stateMutability": "view",
      "type": "function",
      "constant": true
    },
    {
      "inputs": [
        {
          "internalType": "address",
          "name": "from",
          "type": "address"
        },
        {
          "internalType": "address",
          "name": "to",
          "type": "address"
        },
        {
          "internalType": "uint256",
          "name": "tokenId",
          "type": "uint256"
        }
      ],
      "name": "transferFrom",
      "outputs": [],
      "stateMutability": "nonpayable",
      "type": "function"
    },
    {
      "inputs": [
        {
          "internalType": "address",
          "name": "newOwner",
          "type": "address"
        }
      ],
      "name": "transferOwnership",
      "outputs": [],
      "stateMutability": "nonpayable",
      "type": "function"
    },
    {
      "inputs": [],
      "name": "mint",
      "outputs": [],
      "stateMutability": "payable",
      "type": "function",
      "payable": true
    },
    {
      "inputs": [
        {
          "internalType": "uint256",
          "name": "tokenId",
          "type": "uint256"
        }
      ],
      "name": "tokenURI",
      "outputs": [
        {
          "internalType": "string",
          "name": "",
          "type": "string"
        }
      ],
      "stateMutability": "view",
      "type": "function",
      "constant": true
    },
    {
      "inputs": [
        {
          "internalType": "bool",
          "name": "val",
          "type": "bool"
        }
      ],
      "name": "setPaused",
      "outputs": [],
      "stateMutability": "nonpayable",
      "type": "function"
    },
    {
      "inputs": [],
      "name": "withdraw",
      "outputs": [],
      "stateMutability": "nonpayable",
      "type": "function"
    }
  ],
  "bytecode": "0x6080604052655af3107a4000600c55600a600e553480156200002057600080fd5b5060405162003ecb38038062003ecb833981810160405281019062000046919062000372565b6040518060400160405280600681526020017f5354554e465400000000000000000000000000000000000000000000000000008152506040518060400160405280600481526020017f534e4654000000000000000000000000000000000000000000000000000000008152508160009081620000c391906200060e565b508060019081620000d591906200060e565b505050620000f8620000ec6200011160201b60201c565b6200011960201b60201c565b80600b90816200010991906200060e565b5050620006f5565b600033905090565b6000600a60009054906101000a900473ffffffffffffffffffffffffffffffffffffffff16905081600a60006101000a81548173ffffffffffffffffffffffffffffffffffffffff021916908373ffffffffffffffffffffffffffffffffffffffff1602179055508173ffffffffffffffffffffffffffffffffffffffff168173ffffffffffffffffffffffffffffffffffffffff167f8be0079c531659141344cd1fd0a4f28419497f9722a3daafe3b4186f6b6457e060405160405180910390a35050565b6000604051905090565b600080fd5b600080fd5b600080fd5b600080fd5b6000601f19601f8301169050919050565b7f4e487b7100000000000000000000000000000000000000000000000000000000600052604160045260246000fd5b6200024882620001fd565b810181811067ffffffffffffffff821117156200026a57620002696200020e565b5b80604052505050565b60006200027f620001df565b90506200028d82826200023d565b919050565b600067ffffffffffffffff821115620002b057620002af6200020e565b5b620002bb82620001fd565b9050602081019050919050565b60005b83811015620002e8578082015181840152602081019050620002cb565b60008484015250505050565b60006200030b620003058462000292565b62000273565b9050828152602081018484840111156200032a5762000329620001f8565b5b62000337848285620002c8565b509392505050565b600082601f830112620003575762000356620001f3565b5b815162000369848260208601620002f4565b91505092915050565b6000602082840312156200038b576200038a620001e9565b5b600082015167ffffffffffffffff811115620003ac57620003ab620001ee565b5b620003ba848285016200033f565b91505092915050565b600081519050919050565b7f4e487b7100000000000000000000000000000000000000000000000000000000600052602260045260246000fd5b600060028204905060018216806200041657607f821691505b6020821081036200042c576200042b620003ce565b5b50919050565b60008190508160005260206000209050919050565b60006020601f8301049050919050565b600082821b905092915050565b600060088302620004967fffffffffffffffffffffffffffffffffffffffffffffffffffffffffffffffff8262000457565b620004a2868362000457565b95508019841693508086168417925050509392505050565b6000819050919050565b6000819050919050565b6000620004ef620004e9620004e384620004ba565b620004c4565b620004ba565b9050919050565b6000819050919050565b6200050b83620004ce565b620005236200051a82620004f6565b84845462000464565b825550505050565b600090565b6200053a6200052b565b6200054781848462000500565b505050565b5b818110156200056f576200056360008262000530565b6001810190506200054d565b5050565b601f821115620005be57620005888162000432565b620005938462000447565b81016020851015620005a3578190505b620005bb620005b28562000447565b8301826200054c565b50505b505050565b600082821c905092915050565b6000620005e360001984600802620005c3565b1980831691505092915050565b6000620005fe8383620005d0565b9150826002028217905092915050565b6200061982620003c3565b67ffffffffffffffff8111156200063557620006346200020e565b5b620006418254620003fd565b6200064e82828562000573565b600060209050601f83116001811462000686576000841562000671578287015190505b6200067d8582620005f0565b865550620006ed565b601f198416620006968662000432565b60005b82811015620006c05784890151825560018201915060208501945060208101905062000699565b86831015620006e05784890151620006dc601f891682620005d0565b8355505b6001600288020188555050505b505050505050565b6137c680620007056000396000f3fe6080604052600436106101815760003560e01c80634f6ccce7116100d15780638da5cb5b1161008a578063b88d4fde11610064578063b88d4fde14610551578063c87b56dd1461057a578063e985e9c5146105b7578063f2fde38b146105f457610181565b80638da5cb5b146104d257806395d89b41146104fd578063a22cb4651461052857610181565b80634f6ccce7146103ae5780635f769621146103eb5780636352211e1461041657806370a0823114610453578063714cff5614610490578063715018a6146104bb57610181565b806316c61ccc1161013e57806323b872dd1161011857806323b872dd146103085780632f745c59146103315780633ccfd60b1461036e57806342842e0e1461038557610181565b806316c61ccc1461028757806318160ddd146102b2578063235b6ea1146102dd57610181565b806301ffc9a71461018657806306fdde03146101c3578063081812fc146101ee578063095ea7b31461022b5780631249c58b1461025457806316c38b3c1461025e575b600080fd5b34801561019257600080fd5b506101ad60048036038101906101a891906123f5565b61061d565b6040516101ba919061243d565b60405180910390f35b3480156101cf57600080fd5b506101d8610697565b6040516101e591906124e8565b60405180910390f35b3480156101fa57600080fd5b5061021560048036038101906102109190612540565b610729565b60405161022291906125ae565b60405180910390f35b34801561023757600080fd5b50610252600480360381019061024d91906125f5565b61076f565b005b61025c610886565b005b34801561026a57600080fd5b5061028560048036038101906102809190612661565b610989565b005b34801561029357600080fd5b5061029c6109ae565b6040516102a9919061243d565b60405180910390f35b3480156102be57600080fd5b506102c76109c1565b6040516102d4919061269d565b60405180910390f35b3480156102e957600080fd5b506102f26109ce565b6040516102ff919061269d565b60405180910390f35b34801561031457600080fd5b5061032f600480360381019061032a91906126b8565b6109d4565b005b34801561033d57600080fd5b50610358600480360381019061035391906125f5565b610a34565b604051610365919061269d565b60405180910390f35b34801561037a57600080fd5b50610383610ad9565b005b34801561039157600080fd5b506103ac60048036038101906103a791906126b8565b610ba3565b005b3480156103ba57600080fd5b506103d560048036038101906103d09190612540565b610bc3565b6040516103e2919061269d565b60405180910390f35b3480156103f757600080fd5b50610400610c34565b60405161040d919061269d565b60405180910390f35b34801561042257600080fd5b5061043d60048036038101906104389190612540565b610c3a565b60405161044a91906125ae565b60405180910390f35b34801561045f57600080fd5b5061047a6004803603810190610475919061270b565b610ceb565b604051610487919061269d565b60405180910390f35b34801561049c57600080fd5b506104a5610da2565b6040516104b2919061269d565b60405180910390f35b3480156104c757600080fd5b506104d0610da8565b005b3480156104de57600080fd5b506104e7610dbc565b6040516104f491906125ae565b60405180910390f35b34801561050957600080fd5b50610512610de6565b60405161051f91906124e8565b60405180910390f35b34801561053457600080fd5b5061054f600480360381019061054a9190612738565b610e78565b005b34801561055d57600080fd5b50610578600480360381019061057391906128ad565b610e8e565b005b34801561058657600080fd5b506105a1600480360381019061059c9190612540565b610ef0565b6040516105ae91906124e8565b60405180910390f35b3480156105c357600080fd5b506105de60048036038101906105d99190612930565b610f97565b6040516105eb919061243d565b60405180910390f35b34801561060057600080fd5b5061061b6004803603810190610616919061270b565b61102b565b005b60007f780e9d63000000000000000000000000000000000000000000000000000000007bffffffffffffffffffffffffffffffffffffffffffffffffffffffff1916827bffffffffffffffffffffffffffffffffffffffffffffffffffffffff19161480610690575061068f826110ae565b5b9050919050565b6060600080546106a69061299f565b80601f01602080910402602001604051908101604052809291908181526020018280546106d29061299f565b801561071f5780601f106106f45761010080835404028352916020019161071f565b820191906000526020600020905b81548152906001019060200180831161070257829003601f168201915b5050505050905090565b600061073482611190565b6004600083815260200190815260200160002060009054906101000a900473ffffffffffffffffffffffffffffffffffffffff169050919050565b600061077a82610c3a565b90508073ffffffffffffffffffffffffffffffffffffffff168373ffffffffffffffffffffffffffffffffffffffff16036107ea576040517f08c379a00000000000000000000000000000000000000000000000000000000081526004016107e190612a42565b60405180910390fd5b8073ffffffffffffffffffffffffffffffffffffffff166108096111db565b73ffffffffffffffffffffffffffffffffffffffff1614806108385750610837816108326111db565b610f97565b5b610877576040517f08c379a000000000000000000000000000000000000000000000000000000000815260040161086e90612ad4565b60405180910390fd5b61088183836111e3565b505050565b600d60009054906101000a900460ff16156108d6576040517f08c379a00000000000000000000000000000000000000000000000000000000081526004016108cd90612b40565b60405180910390fd5b600e54600f541061091c576040517f08c379a000000000000000000000000000000000000000000000000000000000815260040161091390612bac565b60405180910390fd5b600c54341015610961576040517f08c379a000000000000000000000000000000000000000000000000000000000815260040161095890612c18565b60405180910390fd5b61096d33600f5461129c565b6001600f60008282546109809190612c67565b92505081905550565b6109916112ba565b80600d60006101000a81548160ff02191690831515021790555050565b600d60009054906101000a900460ff1681565b6000600880549050905090565b600c5481565b6109e56109df6111db565b82611338565b610a24576040517f08c379a0000000000000000000000000000000000000000000000000000000008152600401610a1b90612d0d565b60405180910390fd5b610a2f8383836113cd565b505050565b6000610a3f83610ceb565b8210610a80576040517f08c379a0000000000000000000000000000000000000000000000000000000008152600401610a7790612d9f565b60405180910390fd5b600660008473ffffffffffffffffffffffffffffffffffffffff1673ffffffffffffffffffffffffffffffffffffffff168152602001908152602001600020600083815260200190815260200160002054905092915050565b610ae16112ba565b6000610aeb610dbc565b9050600047905060008273ffffffffffffffffffffffffffffffffffffffff1682604051610b1890612df0565b60006040518083038185875af1925050503d8060008114610b55576040519150601f19603f3d011682016040523d82523d6000602084013e610b5a565b606091505b5050905080610b9e576040517f08c379a0000000000000000000000000000000000000000000000000000000008152600401610b9590612e51565b60405180910390fd5b505050565b610bbe83838360405180602001604052806000815250610e8e565b505050565b6000610bcd6109c1565b8210610c0e576040517f08c379a0000000000000000000000000000000000000000000000000000000008152600401610c0590612ee3565b60405180910390fd5b60088281548110610c2257610c21612f03565b5b90600052602060002001549050919050565b600e5481565b6000806002600084815260200190815260200160002060009054906101000a900473ffffffffffffffffffffffffffffffffffffffff169050600073ffffffffffffffffffffffffffffffffffffffff168173ffffffffffffffffffffffffffffffffffffffff1603610ce2576040517f08c379a0000000000000000000000000000000000000000000000000000000008152600401610cd990612f7e565b60405180910390fd5b80915050919050565b60008073ffffffffffffffffffffffffffffffffffffffff168273ffffffffffffffffffffffffffffffffffffffff1603610d5b576040517f08c379a0000000000000000000000000000000000000000000000000000000008152600401610d5290613010565b60405180910390fd5b600360008373ffffffffffffffffffffffffffffffffffffffff1673ffffffffffffffffffffffffffffffffffffffff168152602001908152602001600020549050919050565b600f5481565b610db06112ba565b610dba6000611633565b565b6000600a60009054906101000a900473ffffffffffffffffffffffffffffffffffffffff16905090565b606060018054610df59061299f565b80601f0160208091040260200160405190810160405280929190818152602001828054610e219061299f565b8015610e6e5780601f10610e4357610100808354040283529160200191610e6e565b820191906000526020600020905b815481529060010190602001808311610e5157829003601f168201915b5050505050905090565b610e8a610e836111db565b83836116f9565b5050565b610e9f610e996111db565b83611338565b610ede576040517f08c379a0000000000000000000000000000000000000000000000000000000008152600401610ed590612d0d565b60405180910390fd5b610eea84848484611865565b50505050565b6060610efb826118c1565b610f3a576040517f08c379a0000000000000000000000000000000000000000000000000000000008152600401610f31906130a2565b60405180910390fd5b6000610f4461192d565b90506000815111610f645760405180602001604052806000815250610f8f565b80610f6e846119bf565b604051602001610f7f92919061314a565b6040516020818303038152906040525b915050919050565b6000600560008473ffffffffffffffffffffffffffffffffffffffff1673ffffffffffffffffffffffffffffffffffffffff16815260200190815260200160002060008373ffffffffffffffffffffffffffffffffffffffff1673ffffffffffffffffffffffffffffffffffffffff16815260200190815260200160002060009054906101000a900460ff16905092915050565b6110336112ba565b600073ffffffffffffffffffffffffffffffffffffffff168173ffffffffffffffffffffffffffffffffffffffff16036110a2576040517f08c379a0000000000000000000000000000000000000000000000000000000008152600401611099906131eb565b60405180910390fd5b6110ab81611633565b50565b60007f80ac58cd000000000000000000000000000000000000000000000000000000007bffffffffffffffffffffffffffffffffffffffffffffffffffffffff1916827bffffffffffffffffffffffffffffffffffffffffffffffffffffffff1916148061117957507f5b5e139f000000000000000000000000000000000000000000000000000000007bffffffffffffffffffffffffffffffffffffffffffffffffffffffff1916827bffffffffffffffffffffffffffffffffffffffffffffffffffffffff1916145b80611189575061118882611b1f565b5b9050919050565b611199816118c1565b6111d8576040517f08c379a00000000000000000000000000000000000000000000000000000000081526004016111cf90612f7e565b60405180910390fd5b50565b600033905090565b816004600083815260200190815260200160002060006101000a81548173ffffffffffffffffffffffffffffffffffffffff021916908373ffffffffffffffffffffffffffffffffffffffff160217905550808273ffffffffffffffffffffffffffffffffffffffff1661125683610c3a565b73ffffffffffffffffffffffffffffffffffffffff167f8c5be1e5ebec7d5bd14f71427d1e84f3dd0314c0f7b2291e5b200ac8c7c3b92560405160405180910390a45050565b6112b6828260405180602001604052806000815250611b89565b5050565b6112c26111db565b73ffffffffffffffffffffffffffffffffffffffff166112e0610dbc565b73ffffffffffffffffffffffffffffffffffffffff1614611336576040517f08c379a000000000000000000000000000000000000000000000000000000000815260040161132d90613257565b60405180910390fd5b565b60008061134483610c3a565b90508073ffffffffffffffffffffffffffffffffffffffff168473ffffffffffffffffffffffffffffffffffffffff16148061138657506113858185610f97565b5b806113c457508373ffffffffffffffffffffffffffffffffffffffff166113ac84610729565b73ffffffffffffffffffffffffffffffffffffffff16145b91505092915050565b8273ffffffffffffffffffffffffffffffffffffffff166113ed82610c3a565b73ffffffffffffffffffffffffffffffffffffffff1614611443576040517f08c379a000000000000000000000000000000000000000000000000000000000815260040161143a906132e9565b60405180910390fd5b600073ffffffffffffffffffffffffffffffffffffffff168273ffffffffffffffffffffffffffffffffffffffff16036114b2576040517f08c379a00000000000000000000000000000000000000000000000000000000081526004016114a99061337b565b60405180910390fd5b6114bd838383611be4565b6114c86000826111e3565b6001600360008573ffffffffffffffffffffffffffffffffffffffff1673ffffffffffffffffffffffffffffffffffffffff1681526020019081526020016000206000828254611518919061339b565b925050819055506001600360008473ffffffffffffffffffffffffffffffffffffffff1673ffffffffffffffffffffffffffffffffffffffff168152602001908152602001600020600082825461156f9190612c67565b92505081905550816002600083815260200190815260200160002060006101000a81548173ffffffffffffffffffffffffffffffffffffffff021916908373ffffffffffffffffffffffffffffffffffffffff160217905550808273ffffffffffffffffffffffffffffffffffffffff168473ffffffffffffffffffffffffffffffffffffffff167fddf252ad1be2c89b69c2b068fc378daa952ba7f163c4a11628f55a4df523b3ef60405160405180910390a461162e838383611cf6565b505050565b6000600a60009054906101000a900473ffffffffffffffffffffffffffffffffffffffff16905081600a60006101000a81548173ffffffffffffffffffffffffffffffffffffffff021916908373ffffffffffffffffffffffffffffffffffffffff1602179055508173ffffffffffffffffffffffffffffffffffffffff168173ffffffffffffffffffffffffffffffffffffffff167f8be0079c531659141344cd1fd0a4f28419497f9722a3daafe3b4186f6b6457e060405160405180910390a35050565b8173ffffffffffffffffffffffffffffffffffffffff168373ffffffffffffffffffffffffffffffffffffffff1603611767576040517f08c379a000000000000000000000000000000000000000000000000000000000815260040161175e9061341b565b60405180910390fd5b80600560008573ffffffffffffffffffffffffffffffffffffffff1673ffffffffffffffffffffffffffffffffffffffff16815260200190815260200160002060008473ffffffffffffffffffffffffffffffffffffffff1673ffffffffffffffffffffffffffffffffffffffff16815260200190815260200160002060006101000a81548160ff0219169083151502179055508173ffffffffffffffffffffffffffffffffffffffff168373ffffffffffffffffffffffffffffffffffffffff167f17307eab39ab6107e8899845ad3d59bd9653f200f220920489ca2b5937696c3183604051611858919061243d565b60405180910390a3505050565b6118708484846113cd565b61187c84848484611cfb565b6118bb576040517f08c379a00000000000000000000000000000000000000000000000000000000081526004016118b2906134ad565b60405180910390fd5b50505050565b60008073ffffffffffffffffffffffffffffffffffffffff166002600084815260200190815260200160002060009054906101000a900473ffffffffffffffffffffffffffffffffffffffff1673ffffffffffffffffffffffffffffffffffffffff1614159050919050565b6060600b805461193c9061299f565b80601f01602080910402602001604051908101604052809291908181526020018280546119689061299f565b80156119b55780601f1061198a576101008083540402835291602001916119b5565b820191906000526020600020905b81548152906001019060200180831161199857829003601f168201915b5050505050905090565b606060008203611a06576040518060400160405280600181526020017f30000000000000000000000000000000000000000000000000000000000000008152509050611b1a565b600082905060005b60008214611a38578080611a21906134cd565b915050600a82611a319190613544565b9150611a0e565b60008167ffffffffffffffff811115611a5457611a53612782565b5b6040519080825280601f01601f191660200182016040528015611a865781602001600182028036833780820191505090505b5090505b60008514611b1357600182611a9f919061339b565b9150600a85611aae9190613575565b6030611aba9190612c67565b60f81b818381518110611ad057611acf612f03565b5b60200101907effffffffffffffffffffffffffffffffffffffffffffffffffffffffffffff1916908160001a905350600a85611b0c9190613544565b9450611a8a565b8093505050505b919050565b60007f01ffc9a7000000000000000000000000000000000000000000000000000000007bffffffffffffffffffffffffffffffffffffffffffffffffffffffff1916827bffffffffffffffffffffffffffffffffffffffffffffffffffffffff1916149050919050565b611b938383611e82565b611ba06000848484611cfb565b611bdf576040517f08c379a0000000000000000000000000000000000000000000000000000000008152600401611bd6906134ad565b60405180910390fd5b505050565b611bef83838361205b565b600073ffffffffffffffffffffffffffffffffffffffff168373ffffffffffffffffffffffffffffffffffffffff1603611c3157611c2c81612060565b611c70565b8173ffffffffffffffffffffffffffffffffffffffff168373ffffffffffffffffffffffffffffffffffffffff1614611c6f57611c6e83826120a9565b5b5b600073ffffffffffffffffffffffffffffffffffffffff168273ffffffffffffffffffffffffffffffffffffffff1603611cb257611cad81612216565b611cf1565b8273ffffffffffffffffffffffffffffffffffffffff168273ffffffffffffffffffffffffffffffffffffffff1614611cf057611cef82826122e7565b5b5b505050565b505050565b6000611d1c8473ffffffffffffffffffffffffffffffffffffffff16612366565b15611e75578373ffffffffffffffffffffffffffffffffffffffff1663150b7a02611d456111db565b8786866040518563ffffffff1660e01b8152600401611d6794939291906135fb565b6020604051808303816000875af1925050508015611da357506040513d601f19601f82011682018060405250810190611da0919061365c565b60015b611e25573d8060008114611dd3576040519150601f19603f3d011682016040523d82523d6000602084013e611dd8565b606091505b506000815103611e1d576040517f08c379a0000000000000000000000000000000000000000000000000000000008152600401611e14906134ad565b60405180910390fd5b805181602001fd5b63150b7a0260e01b7bffffffffffffffffffffffffffffffffffffffffffffffffffffffff1916817bffffffffffffffffffffffffffffffffffffffffffffffffffffffff191614915050611e7a565b600190505b949350505050565b600073ffffffffffffffffffffffffffffffffffffffff168273ffffffffffffffffffffffffffffffffffffffff1603611ef1576040517f08c379a0000000000000000000000000000000000000000000000000000000008152600401611ee8906136d5565b60405180910390fd5b611efa816118c1565b15611f3a576040517f08c379a0000000000000000000000000000000000000000000000000000000008152600401611f3190613741565b60405180910390fd5b611f4660008383611be4565b6001600360008473ffffffffffffffffffffffffffffffffffffffff1673ffffffffffffffffffffffffffffffffffffffff1681526020019081526020016000206000828254611f969190612c67565b92505081905550816002600083815260200190815260200160002060006101000a81548173ffffffffffffffffffffffffffffffffffffffff021916908373ffffffffffffffffffffffffffffffffffffffff160217905550808273ffffffffffffffffffffffffffffffffffffffff16600073ffffffffffffffffffffffffffffffffffffffff167fddf252ad1be2c89b69c2b068fc378daa952ba7f163c4a11628f55a4df523b3ef60405160405180910390a461205760008383611cf6565b5050565b505050565b6008805490506009600083815260200190815260200160002081905550600881908060018154018082558091505060019003906000526020600020016000909190919091505550565b600060016120b684610ceb565b6120c0919061339b565b90506000600760008481526020019081526020016000205490508181146121a5576000600660008673ffffffffffffffffffffffffffffffffffffffff1673ffffffffffffffffffffffffffffffffffffffff168152602001908152602001600020600084815260200190815260200160002054905080600660008773ffffffffffffffffffffffffffffffffffffffff1673ffffffffffffffffffffffffffffffffffffffff168152602001908152602001600020600084815260200190815260200160002081905550816007600083815260200190815260200160002081905550505b6007600084815260200190815260200160002060009055600660008573ffffffffffffffffffffffffffffffffffffffff1673ffffffffffffffffffffffffffffffffffffffff16815260200190815260200160002060008381526020019081526020016000206000905550505050565b6000600160088054905061222a919061339b565b905060006009600084815260200190815260200160002054905060006008838154811061225a57612259612f03565b5b90600052602060002001549050806008838154811061227c5761227b612f03565b5b9060005260206000200181905550816009600083815260200190815260200160002081905550600960008581526020019081526020016000206000905560088054806122cb576122ca613761565b5b6001900381819060005260206000200160009055905550505050565b60006122f283610ceb565b905081600660008573ffffffffffffffffffffffffffffffffffffffff1673ffffffffffffffffffffffffffffffffffffffff168152602001908152602001600020600083815260200190815260200160002081905550806007600084815260200190815260200160002081905550505050565b6000808273ffffffffffffffffffffffffffffffffffffffff163b119050919050565b6000604051905090565b600080fd5b600080fd5b60007fffffffff0000000000000000000000000000000000000000000000000000000082169050919050565b6123d28161239d565b81146123dd57600080fd5b50565b6000813590506123ef816123c9565b92915050565b60006020828403121561240b5761240a612393565b5b6000612419848285016123e0565b91505092915050565b60008115159050919050565b61243781612422565b82525050565b6000602082019050612452600083018461242e565b92915050565b600081519050919050565b600082825260208201905092915050565b60005b83811015612492578082015181840152602081019050612477565b60008484015250505050565b6000601f19601f8301169050919050565b60006124ba82612458565b6124c48185612463565b93506124d4818560208601612474565b6124dd8161249e565b840191505092915050565b6000602082019050818103600083015261250281846124af565b905092915050565b6000819050919050565b61251d8161250a565b811461252857600080fd5b50565b60008135905061253a81612514565b92915050565b60006020828403121561255657612555612393565b5b60006125648482850161252b565b91505092915050565b600073ffffffffffffffffffffffffffffffffffffffff82169050919050565b60006125988261256d565b9050919050565b6125a88161258d565b82525050565b60006020820190506125c3600083018461259f565b92915050565b6125d28161258d565b81146125dd57600080fd5b50565b6000813590506125ef816125c9565b92915050565b6000806040838503121561260c5761260b612393565b5b600061261a858286016125e0565b925050602061262b8582860161252b565b9150509250929050565b61263e81612422565b811461264957600080fd5b50565b60008135905061265b81612635565b92915050565b60006020828403121561267757612676612393565b5b60006126858482850161264c565b91505092915050565b6126978161250a565b82525050565b60006020820190506126b2600083018461268e565b92915050565b6000806000606084860312156126d1576126d0612393565b5b60006126df868287016125e0565b93505060206126f0868287016125e0565b92505060406127018682870161252b565b9150509250925092565b60006020828403121561272157612720612393565b5b600061272f848285016125e0565b91505092915050565b6000806040838503121561274f5761274e612393565b5b600061275d858286016125e0565b925050602061276e8582860161264c565b9150509250929050565b600080fd5b600080fd5b7f4e487b7100000000000000000000000000000000000000000000000000000000600052604160045260246000fd5b6127ba8261249e565b810181811067ffffffffffffffff821117156127d9576127d8612782565b5b80604052505050565b60006127ec612389565b90506127f882826127b1565b919050565b600067ffffffffffffffff82111561281857612817612782565b5b6128218261249e565b9050602081019050919050565b82818337600083830152505050565b600061285061284b846127fd565b6127e2565b90508281526020810184848401111561286c5761286b61277d565b5b61287784828561282e565b509392505050565b600082601f83011261289457612893612778565b5b81356128a484826020860161283d565b91505092915050565b600080600080608085870312156128c7576128c6612393565b5b60006128d5878288016125e0565b94505060206128e6878288016125e0565b93505060406128f78782880161252b565b925050606085013567ffffffffffffffff81111561291857612917612398565b5b6129248782880161287f565b91505092959194509250565b6000806040838503121561294757612946612393565b5b6000612955858286016125e0565b9250506020612966858286016125e0565b9150509250929050565b7f4e487b7100000000000000000000000000000000000000000000000000000000600052602260045260246000fd5b600060028204905060018216806129b757607f821691505b6020821081036129ca576129c9612970565b5b50919050565b7f4552433732313a20617070726f76616c20746f2063757272656e74206f776e6560008201527f7200000000000000000000000000000000000000000000000000000000000000602082015250565b6000612a2c602183612463565b9150612a37826129d0565b604082019050919050565b60006020820190508181036000830152612a5b81612a1f565b9050919050565b7f4552433732313a20617070726f76652063616c6c6572206973206e6f7420746f60008201527f6b656e206f776e6572206e6f7220617070726f76656420666f7220616c6c0000602082015250565b6000612abe603e83612463565b9150612ac982612a62565b604082019050919050565b60006020820190508181036000830152612aed81612ab1565b9050919050565b7f436f6e74726163742063757272656e746c792070617573656400000000000000600082015250565b6000612b2a601983612463565b9150612b3582612af4565b602082019050919050565b60006020820190508181036000830152612b5981612b1d565b9050919050565b7f457863656564206d6178696d756d204e465420737570706c7900000000000000600082015250565b6000612b96601983612463565b9150612ba182612b60565b602082019050919050565b60006020820190508181036000830152612bc581612b89565b9050919050565b7f45746865722073656e74206973206e6f7420636f727265637400000000000000600082015250565b6000612c02601983612463565b9150612c0d82612bcc565b602082019050919050565b60006020820190508181036000830152612c3181612bf5565b9050919050565b7f4e487b7100000000000000000000000000000000000000000000000000000000600052601160045260246000fd5b6000612c728261250a565b9150612c7d8361250a565b9250828201905080821115612c9557612c94612c38565b5b92915050565b7f4552433732313a2063616c6c6572206973206e6f7420746f6b656e206f776e6560008201527f72206e6f7220617070726f766564000000000000000000000000000000000000602082015250565b6000612cf7602e83612463565b9150612d0282612c9b565b604082019050919050565b60006020820190508181036000830152612d2681612cea565b9050919050565b7f455243373231456e756d657261626c653a206f776e657220696e646578206f7560008201527f74206f6620626f756e6473000000000000000000000000000000000000000000602082015250565b6000612d89602b83612463565b9150612d9482612d2d565b604082019050919050565b60006020820190508181036000830152612db881612d7c565b9050919050565b600081905092915050565b50565b6000612dda600083612dbf565b9150612de582612dca565b600082019050919050565b6000612dfb82612dcd565b9150819050919050565b7f4661696c656420746f2073656e64204574686572000000000000000000000000600082015250565b6000612e3b601483612463565b9150612e4682612e05565b602082019050919050565b60006020820190508181036000830152612e6a81612e2e565b9050919050565b7f455243373231456e756d657261626c653a20676c6f62616c20696e646578206f60008201527f7574206f6620626f756e64730000000000000000000000000000000000000000602082015250565b6000612ecd602c83612463565b9150612ed882612e71565b604082019050919050565b60006020820190508181036000830152612efc81612ec0565b9050919050565b7f4e487b7100000000000000000000000000000000000000000000000000000000600052603260045260246000fd5b7f4552433732313a20696e76616c696420746f6b656e2049440000000000000000600082015250565b6000612f68601883612463565b9150612f7382612f32565b602082019050919050565b60006020820190508181036000830152612f9781612f5b565b9050919050565b7f4552433732313a2061646472657373207a65726f206973206e6f74206120766160008201527f6c6964206f776e65720000000000000000000000000000000000000000000000602082015250565b6000612ffa602983612463565b915061300582612f9e565b604082019050919050565b6000602082019050818103600083015261302981612fed565b9050919050565b7f4552433732314d657461646174613a2055524920717565727920666f72206e6f60008201527f6e6578697374656e7420746f6b656e0000000000000000000000000000000000602082015250565b600061308c602f83612463565b915061309782613030565b604082019050919050565b600060208201905081810360008301526130bb8161307f565b9050919050565b600081905092915050565b60006130d882612458565b6130e281856130c2565b93506130f2818560208601612474565b80840191505092915050565b7f2e6a736f6e000000000000000000000000000000000000000000000000000000600082015250565b60006131346005836130c2565b915061313f826130fe565b600582019050919050565b600061315682856130cd565b915061316282846130cd565b915061316d82613127565b91508190509392505050565b7f4f776e61626c653a206e6577206f776e657220697320746865207a65726f206160008201527f6464726573730000000000000000000000000000000000000000000000000000602082015250565b60006131d5602683612463565b91506131e082613179565b604082019050919050565b60006020820190508181036000830152613204816131c8565b9050919050565b7f4f776e61626c653a2063616c6c6572206973206e6f7420746865206f776e6572600082015250565b6000613241602083612463565b915061324c8261320b565b602082019050919050565b6000602082019050818103600083015261327081613234565b9050919050565b7f4552433732313a207472616e736665722066726f6d20696e636f72726563742060008201527f6f776e6572000000000000000000000000000000000000000000000000000000602082015250565b60006132d3602583612463565b91506132de82613277565b604082019050919050565b60006020820190508181036000830152613302816132c6565b9050919050565b7f4552433732313a207472616e7366657220746f20746865207a65726f2061646460008201527f7265737300000000000000000000000000000000000000000000000000000000602082015250565b6000613365602483612463565b915061337082613309565b604082019050919050565b6000602082019050818103600083015261339481613358565b9050919050565b60006133a68261250a565b91506133b18361250a565b92508282039050818111156133c9576133c8612c38565b5b92915050565b7f4552433732313a20617070726f766520746f2063616c6c657200000000000000600082015250565b6000613405601983612463565b9150613410826133cf565b602082019050919050565b60006020820190508181036000830152613434816133f8565b9050919050565b7f4552433732313a207472616e7366657220746f206e6f6e20455243373231526560008201527f63656976657220696d706c656d656e7465720000000000000000000000000000602082015250565b6000613497603283612463565b91506134a28261343b565b604082019050919050565b600060208201905081810360008301526134c68161348a565b9050919050565b60006134d88261250a565b91507fffffffffffffffffffffffffffffffffffffffffffffffffffffffffffffffff820361350a57613509612c38565b5b600182019050919050565b7f4e487b7100000000000000000000000000000000000000000000000000000000600052601260045260246000fd5b600061354f8261250a565b915061355a8361250a565b92508261356a57613569613515565b5b828204905092915050565b60006135808261250a565b915061358b8361250a565b92508261359b5761359a613515565b5b828206905092915050565b600081519050919050565b600082825260208201905092915050565b60006135cd826135a6565b6135d781856135b1565b93506135e7818560208601612474565b6135f08161249e565b840191505092915050565b6000608082019050613610600083018761259f565b61361d602083018661259f565b61362a604083018561268e565b818103606083015261363c81846135c2565b905095945050505050565b600081519050613656816123c9565b92915050565b60006020828403121561367257613671612393565b5b600061368084828501613647565b91505092915050565b7f4552433732313a206d696e7420746f20746865207a65726f2061646472657373600082015250565b60006136bf602083612463565b91506136ca82613689565b602082019050919050565b600060208201905081810360008301526136ee816136b2565b9050919050565b7f4552433732313a20746f6b656e20616c7265616479206d696e74656400000000600082015250565b600061372b601c83612463565b9150613736826136f5565b602082019050919050565b6000602082019050818103600083015261375a8161371e565b9050919050565b7f4e487b7100000000000000000000000000000000000000000000000000000000600052603160045260246000fdfea2646970667358221220e891cbcd5cb0a95d4bee6f08b6c9de5139ff6a24d11d17333e821aa5dee3e38264736f6c63430008110033",
  "immutableReferences": {},
  "source": "// SPDX-License-Identifier: MIT\npragma solidity ^0.8.17;\n\nimport \"@openzeppelin/contracts/token/ERC721/extensions/ERC721Enumerable.sol\";\nimport \"@openzeppelin/contracts/access/Ownable.sol\";\n\nimport \"@openzeppelin/contracts/utils/Strings.sol\";\n\ncontract STUNFT is ERC721Enumerable, Ownable {\n    using Strings for uint256;\n    /**\n     * @dev _baseTokenURI for computing {tokenURI}. If set, the resulting URI for each\n     * token will be the concatenation of the `baseURI` and the `tokenId`.\n     */\n    string _baseTokenURI;\n\n    //  _price is the price of one NFT\n    uint256 public _price = 0.0001 ether;\n\n    // _paused is used to pause the contract in case of an emergency\n    bool public _paused;\n\n    // max number of NFT\n    uint256 public maxTokenIds = 10;\n\n    // total number of tokenIds minted\n    uint256 public tokenIds;\n\n    modifier onlyWhenNotPaused() {\n        require(!_paused, \"Contract currently paused\");\n        _;\n    }\n\n    /**\n     * @dev ERC721 constructor takes in a `name` and a `symbol` to the token collection.\n     * name in our case is `NFT` and symbol is `LW3P`.\n     * Constructor for LW3P takes in the baseURI to set _baseTokenURI for the collection.\n     */\n    constructor(string memory baseURI) ERC721(\"STUNFT\", \"SNFT\") {\n        _baseTokenURI = baseURI;\n    }\n\n    /**\n     * @dev mint allows an user to mint 1 NFT per transaction.\n     */\n    function mint() public payable onlyWhenNotPaused {\n        require(tokenIds < maxTokenIds, \"Exceed maximum NFT supply\");\n        require(msg.value >= _price, \"Ether sent is not correct\");\n        _safeMint(msg.sender, tokenIds);\n        tokenIds += 1;\n    }\n\n    /**\n     * @dev _baseURI overides the Openzeppelin's ERC721 implementation which by default\n     * returned an empty string for the baseURI\n     */\n    function _baseURI() internal view virtual override returns (string memory) {\n        return _baseTokenURI;\n    }\n\n    /**\n     * @dev tokenURI overides the Openzeppelin's ERC721 implementation for tokenURI function\n     * This function returns the URI from where we can extract the metadata for a given tokenId\n     */\n    function tokenURI(uint256 tokenId)\n        public\n        view\n        virtual\n        override\n        returns (string memory)\n    {\n        require(\n            _exists(tokenId),\n            \"ERC721Metadata: URI query for nonexistent token\"\n        );\n\n        string memory baseURI = _baseURI();\n        // Here it checks if the length of the baseURI is greater than 0, if it is return the baseURI and attach\n        // the tokenId and `.json` to it so that it knows the location of the metadata json file for a given\n        // tokenId stored on IPFS\n        // If baseURI is empty return an empty string\n        return\n            bytes(baseURI).length > 0\n                ? string(abi.encodePacked(baseURI, tokenId.toString(), \".json\")) // ? string(abi.encodePacked(baseURI, tokenId, \".json\"))\n                : \"\";\n    }\n\n    /**\n     * @dev setPaused makes the contract paused or unpaused\n     */\n    function setPaused(bool val) public onlyOwner {\n        _paused = val;\n    }\n\n    /**\n     * @dev withdraw sends all the ether in the contract\n     * to the owner of the contract\n     */\n    function withdraw() public onlyOwner {\n        address _owner = owner();\n        uint256 amount = address(this).balance;\n        (bool sent, ) = _owner.call{value: amount}(\"\");\n        require(sent, \"Failed to send Ether\");\n    }\n}\n",
  "sourcePath": "C:\\Users\\Sudeep\\Desktop\\nft_ipfs\\bc\\contracts\\NFT.sol",
  "compiler": {
    "name": "solc",
    "version": "0.8.17+commit.8df45f5f.Emscripten.clang"
  },
  "schemaVersion": "3.4.2",
  "updatedAt": "2022-10-12T09:52:25.993Z",
  "networkType": "ethereum",
  "devdoc": {
    "kind": "dev",
    "methods": {
      "approve(address,uint256)": {
        "details": "See {IERC721-approve}."
      },
      "balanceOf(address)": {
        "details": "See {IERC721-balanceOf}."
      },
      "constructor": {
        "details": "ERC721 constructor takes in a `name` and a `symbol` to the token collection. name in our case is `NFT` and symbol is `LW3P`. Constructor for LW3P takes in the baseURI to set _baseTokenURI for the collection."
      },
      "getApproved(uint256)": {
        "details": "See {IERC721-getApproved}."
      },
      "isApprovedForAll(address,address)": {
        "details": "See {IERC721-isApprovedForAll}."
      },
      "mint()": {
        "details": "mint allows an user to mint 1 NFT per transaction."
      },
      "name()": {
        "details": "See {IERC721Metadata-name}."
      },
      "owner()": {
        "details": "Returns the address of the current owner."
      },
      "ownerOf(uint256)": {
        "details": "See {IERC721-ownerOf}."
      },
      "renounceOwnership()": {
        "details": "Leaves the contract without owner. It will not be possible to call `onlyOwner` functions anymore. Can only be called by the current owner. NOTE: Renouncing ownership will leave the contract without an owner, thereby removing any functionality that is only available to the owner."
      },
      "safeTransferFrom(address,address,uint256)": {
        "details": "See {IERC721-safeTransferFrom}."
      },
      "safeTransferFrom(address,address,uint256,bytes)": {
        "details": "See {IERC721-safeTransferFrom}."
      },
      "setApprovalForAll(address,bool)": {
        "details": "See {IERC721-setApprovalForAll}."
      },
      "setPaused(bool)": {
        "details": "setPaused makes the contract paused or unpaused"
      },
      "supportsInterface(bytes4)": {
        "details": "See {IERC165-supportsInterface}."
      },
      "symbol()": {
        "details": "See {IERC721Metadata-symbol}."
      },
      "tokenByIndex(uint256)": {
        "details": "See {IERC721Enumerable-tokenByIndex}."
      },
      "tokenOfOwnerByIndex(address,uint256)": {
        "details": "See {IERC721Enumerable-tokenOfOwnerByIndex}."
      },
      "tokenURI(uint256)": {
        "details": "tokenURI overides the Openzeppelin's ERC721 implementation for tokenURI function This function returns the URI from where we can extract the metadata for a given tokenId"
      },
      "totalSupply()": {
        "details": "See {IERC721Enumerable-totalSupply}."
      },
      "transferFrom(address,address,uint256)": {
        "details": "See {IERC721-transferFrom}."
      },
      "transferOwnership(address)": {
        "details": "Transfers ownership of the contract to a new account (`newOwner`). Can only be called by the current owner."
      },
      "withdraw()": {
        "details": "withdraw sends all the ether in the contract to the owner of the contract"
      }
    },
    "stateVariables": {
      "_baseTokenURI": {
        "details": "_baseTokenURI for computing {tokenURI}. If set, the resulting URI for each token will be the concatenation of the `baseURI` and the `tokenId`."
      }
    },
    "version": 1
  },
  "userdoc": {
    "kind": "user",
    "methods": {},
    "version": 1
  }
}